:100000000C942A000C943F000C943F000C943F0089
:100010000C943F000C943F000C943F000C943F0064
:100020000C943F000C943F000C943F000C943F0054
:100030000C943F000C943F000C943F000C943F0044
:100040000C943F000C943F000C943F000C943F0034
:100050000C943F0011241FBECFE5D4E0DEBFCDBF1E
:1000600010E0A0E6B0E0EAE6F2E002C005900D92F2
:10007000AC36B107D9F70E9441000C9433010C94BF
:1000800000000F931F93DF93CF93CDB7DEB7C15915
:10009000D0400FB6F894DEBF0FBECDBF8E010F5E0D
:1000A0001F4FC8010E94AE002AE630E03A83298340
:1000B0008C818F7080688C8388E893E19E838D8328
:1000C0003A8729878C858F7080688C8780E197E2DA
:1000D0009E878D87C801BE016F5F7F4F0E948D0094
:1000E000C801BE01675F7F4F0E948D008BB38BB349
:1000F0008BB388B38BB385B38BB382B380E090E0CE
:10010000CF56DF4F0FB6F894DEBF0FBECDBFCF91F5
:10011000DF911F910F9108950895DC01A058BF4F02
:100120002C91E22FF0E0EE0FFF1FE80FF91F718313
:1001300060832F5F2C930895DC01A058BF4F1C9261
:10014000A058B04080E090E0FD01E80FF91F118257
:100150001082029680389105B9F70895DC01A05805
:10016000BF4F1C92A058B04080E090E0FD01E80F26
:10017000F91F11821082029680389105B9F708950F
:10018000FC01248135812115310571F0868197812B
:100190000196978386832817390730F417821682D1
:1001A0008381807F8160838308950F931F93CF9312
:1001B000DF938C0120E030E0F801E20FF31F0190A3
:1001C000F081E02D448155814115510571F0868102
:1001D00097810196978386834817590730F41782D1
:1001E00016828381807F816083832E5F3F4F20381A
:1001F000310511F720E030E005C02E5F3F4F203879
:10020000310589F0F801E20FF31F0190F081E02D34
:10021000309799F383818F70813079F3DF91CF919B
:100220001F910F910895C0E0D0E004C02296C0381D
:10023000D105A1F3F801EC0FFD1FA081B181139648
:100240009C911397892F8F70813081F792959F70C1
:100250009F3061F7ED91FC9111970190F081E02DB5
:0A026000CD010995E3CFF894FFCF1C
:0C026A00000000008C00000000008C0070
:00000001FF
